:020000040800F2
:1000000038050020C501000889220008AD1E00083F
:1000100085220008F5020008C12600080000000043
:100020000000000000000000000000009122000815
:10003000F9020008000000008D2200089522000847
:10004000DF010008DF010008DF010008DF01000810
:10005000DF010008DF010008DF010008DF01000800
:10006000FD020008DF010008DF010008DF010008D1
:10007000DF010008DF010008DF010008DF010008E0
:10008000DF010008DF010008DF010008DF010008D0
:10009000DF010008DF010008DF010008DF010008C0
:1000A000DF01000869230008DF010008DF01000804
:1000B000DF010008DF010008DF010008DF010008A0
:1000C000DF010008DF010008DF010008DF01000890
:1000D000DF010008DF010008DF010008DF01000880
:1000E000DF010008DF010008DF010008DF01000870
:1000F000DF010008DF010008DF010008DF01000860
:10010000DF010008DF010008DF010008DF0100084F
:10011000DF010008DF010008DF010008DF0100083F
:10012000DF010008DF010008DF010008DF0100082F
:10013000DF010008DF010008DF010008DF0100081F
:10014000DF010008DF010008DF010008DF0100080F
:10015000DF010008DF010008DF010008DF010008FF
:10016000DF010008DF010008DF010008DF010008EF
:10017000DF010008DF010008DF01000800000000C7
:10018000DF010008DF010008B9240008DF010008D2
:10019000DF010008DF010008DF010008DF010008BF
:1001A0000000000000000000DF010008DFF810D0B0
:1001B00000F08EF800F05CF800480047D9260008EF
:1001C000380500200648804706480047FEE7FEE75E
:1001D000FEE7FEE7FEE7FEE7FEE7FEE7FEE7FEE7F7
:1001E00055230008AD0100082DE9F05F0546002009
:1001F00092469B4688460646814640241BE0284698
:1002000041464746224600F052F853465A46C01A25
:10021000914110D311461846224600F039F82D1AA4
:1002200067EB01084F4622460120002100F030F81C
:1002300017EB00094E41201EA4F10104DFDC484603
:1002400031462A464346BDE8F09F40EA01039B073A
:1002500003D009E008C9121F08C0042AFAD203E03B
:1002600011F8013B00F8013B521EF9D27047000023
:1002700070B5054C054D04E02046016808448047F0
:10028000241DAC42F8D170BD282B00082C2B00088F
:10029000202A04DB203A00FA02F100207047914046
:1002A000C2F1200320FA03F3194390407047202A3B
:1002B00004DB203A21FA02F00021704721FA02F310
:1002C000D040C2F120029140084319467047000017
:1002D000064C074D06E0E06840F0010394E8070093
:1002E00098471034AC42F6D3FFF764FF082B0008A0
:1002F000282B0008FEE7000070470000042000F0F3
:1003000097B8000072B600BFFEE7000070B5866DBA
:10031000044600F079F994F83510022928D10546F1
:100320002068216C026822F016020260426922F005
:100330008002426109B9A16C19B1016821F008017C
:100340000160016821F00101016000BF20680068C0
:10035000C00715D000F058F9401B0628F6D320201E
:100360006065032084F83500002184F8341070BDE6
:10037000802060650120002184F8341070BD00BF2A
:10038000E06D3F2101FA00F0B060012084F83500F3
:100390000020002184F8341070BD000090F8351062
:1003A000022909D1052180F835100068016821F083
:1003B00001010160002070478021416501207047E4
:1003C00010B52DED028B00F01FF940F22804C2F2A7
:1003D000000421686060411AB1F5FA7F22D940F229
:1003E0004401C2F2000109682060C86A013000EED1
:1003F000100AB8EE408A00F007F9800000EE100AFB
:100400009FED0A1AB8EE400A80EE010A02F0C4F924
:1004100028EE000ABFEE001A30EE010ABCEEC00A58
:1004200084ED020ABDEC028B10BD00BF00007A44CF
:1004300043F61441C4F201010A68024214BF086085
:100440007047FFF7BDBF00002DE9F04F82B000F10B
:100450003E4242F2004502F1FF77C4F202050A2251
:1004600043F6004E4FEAB726A84208BF0922C4F25D
:10047000010E092E38BF4FEAB722012500260027BA
:100480004FF00008009208E008F101080437B8F1C5
:10049000100F06F1020600F0A7800C6805FA08F9B3
:1004A00014EA090FF0D0D1F804B003220BF0030CCA
:1004B000ACF10104B240012C6FEA020A10D8826844
:1004C000CC6802EA0A02B440224382604268CBF35D
:1004D000001422EA090204FA08F42243426005E00B
:1004E000BCF1030F02D14FF0030C20E0C2688C680E
:1004F00002EA0A02B4402243BCF1020FC26016D1E4
:100500006FF0030202EA58020244D2F820C007F05A
:100510001C050F230C69AB402CEA030304FA05F514
:100520002B431362D1F804B001250BF0030C0268D1
:100530000CFA06F302EA0A021A431BF4403F026077
:10054000A2D0002243F644030192C4F202031A68C7
:100550004FF6084C42F480421A601A68CFF6FF7CCE
:1005600002F480420192019A28F00302724452F888
:100570000C3007F00C050F24AC40A343009C04FA98
:1005800005F52B4342F80C30DEF808204B6842EAB0
:10059000090543F60C4CDC0258BF22EA0905CEF8E7
:1005A0000850C4F2010CDCF800209C0242EA090564
:1005B00058BF22EA0905CCF80050DEF804209C035D
:1005C00042EA090558BF22EA0905CEF80450DEF8D0
:1005D0000020DB0342EA090558BF22EA0905CEF8EC
:1005E0000050012550E700BF02B0BDE8F08F0000C9
:1005F0000069084018BF012070470000002A08BFAA
:10060000090481617047000040F23010C2F200001E
:100610000068704770B548B304460068D4E9011219
:100620004CF6CC43036045F2555303604160826051
:10063000FFF7EAFF2168CA68920711D0054641F624
:10064000020602E0C86880070AD0FFF7DDFF401B02
:100650002168B042F6D3C8688007F3D0032070BD8C
:100660004AF6AA200860002070BD00BF012070BDBE
:1006700001684AF6AA2200200A60704740F204008E
:1006800040F23011C2F20000C2F2000100780A68A4
:10069000104408607047000080B543F60040C4F283
:1006A0000200016841F400710160016841F4806159
:1006B0000160016841F480710160032000F088F856
:1006C0000F2000F005F800F027F8002080BD0000A2
:1006D00070B540F20406C2F2000640F20C01327816
:1006E000C2F200014FF47A730968B3FBF2F20446D8
:1006F000B1FBF2F1084600F081FB0F2C4FF0010531
:1007000008D838B94FF0FF3021460022002500F00C
:1007100033F87460284670BD82B0002043F6400173
:100720000190C4F202014A6842F480424A604A6879
:1007300002F480420192019A0090086840F08050D3
:100740000860086800F080500090009802B0704780
:10075000002848BF7047C1B200F01F00012202FA12
:1007600000F04EF20012CEF2000242EAD10121F076
:10077000030108607047000010B54EF60C5CCEF225
:10078000000CDCF80030C3F3022E8EF00704042CBA
:1007900028BF0424BEF103034FF0FF3E0EFA04F419
:1007A00038BF0023A14399400EFA03F39A43114343
:1007B00000F00F0200F160430901043A03F56443BD
:1007C0006244002848BF02F10C03197010BD0000FC
:1007D0004EF60C51CEF200010A684FF6FF031A40A4
:1007E00060F30A2242F0806040F0FD7008607047BC
:1007F00070B582B00020019043F64000C4F20200C0
:100800000168402641F0805101600068C4F20E2664
:1008100000F080500190019847F204050120C4F2D5
:1008200000053060FFF7F0FE044600BF2868C003F3
:1008300006D4FFF7E9FE001BB0F57A7FF6D90EE08B
:1008400001207060FFF7E0FE044600BF28688003C7
:1008500008D4FFF7D9FE001BB0F57A7FF6D9032044
:1008600002B070BD002002B070BD00002DE9F04163
:10087000002800F08B8043F60808C4F20208044602
:10088000D8F8F8030D4600F00F00884207D288F828
:10089000F853D8F8F80300F00F00A84276D120688A
:1008A000810717D5410705D5D8F8001041F4E0516C
:1008B000C8F80010010705D5D8F8001041F46041D0
:1008C000C8F80010D8F80010A26821F0F001114318
:1008D000C8F80010C0073FD1D8F8F80300F00F00A7
:1008E000A84207D988F8F853D8F8F80300F00F00A9
:1008F000A8424BD12068410707D5D8F80010E2681C
:1009000021F4E0511143C8F80010000708D5D8F8C9
:100910000000216920F4604040EAC100C8F80000EE
:1009200000F07CF8D8F8001042F6F022C1F3031171
:10093000C0F60002515C40F20C0220FA01F140F2D4
:100940000800C2F200000068C2F200021160FFF766
:10095000BFFE0020BDE8F0816068811E022907D239
:1009600058F8081C89015CBF0120BDE8F08111E046
:10097000012807D158F8081C89035CBF0120BDE895
:10098000F08107E058F8081C890703D40120BDE86E
:10099000F08100BFD8F8001021F003010843C8F827
:1009A0000000FFF731FE064641F28837D8F8000014
:1009B000616800F00C00B0EB810F8DD0FFF724FED2
:1009C000801BB842F2D90320BDE8F08140F20C0050
:1009D00043F60801C2F20000C4F20201006809688F
:1009E00042F60032C1F38221C0F60002515CC840D9
:1009F0007047000040F20C0043F60801C2F200000C
:100A0000C4F202010068096842F60032C1F34231C3
:100A1000C0F60002515CC8407047000010B543F6B4
:100A20000404C4F20204606800F00C0008280BD033
:100A3000042819BF42F20040C0F2F40041F6003031
:100A4000C0F2B70010BD00BF2068216823684902CA
:100A500041F60031C0F2B70100F03F02C3F3881045
:100A60005CBF42F20041C0F2F401A1FB000100238F
:100A7000FFF7BAFB21680222C1F3014102EB4101F9
:100A8000B0FBF1F010BD00002DE9F04182B000286C
:100A900068D00446007843F60006C007C4F2020698
:100AA0000BD0B06800F00C00042840F09F80306844
:100AB000800302D56068002854D0207880071AD5BA
:100AC000B06810F00C0F09D0B06800F00C000828D6
:100AD00040F0A6807068400200F1A2803068800774
:100AE00002D5E06801283DD13068216920F0F80086
:100AF00040EAC10030602078000737D420784007F2
:100B00004CD4A56955B3B06800F00C00082840F03B
:100B1000BB80012D26D07068E16900F480028A4212
:100B200020D1216A00F03F028A421BD147F6C071F2
:100B3000626A0140B1EB821F14D1A16A4FF6FF73C4
:100B4000C903994300F44032A1F580318A4209D1AA
:100B5000E16A00F07060B0EB016F03D1002002B0D9
:100B6000BDE8F081012002B0BDE8F0816069002895
:100B700040F20000C4F2472076D00121C0F8801E68
:100B8000FFF742FD054600BF706F8007B6D4FFF740
:100B90003BFD401B0228F7D9DDE000BF306C10F0B0
:100BA00080580AD100200190306C40F080503064B1
:100BB000306C00F080500190019847F20007C4F2B9
:100BC00000073868C00541D4386840F48070386048
:100BD000FFF71AFD054600BF3868C00536D4FFF799
:100BE00013FD401B0228F7D9B5E000BFB06800F044
:100BF0000C00082803D1706840023FF558AF6068C8
:100C0000B0F5803F07D0B0F5A02F40F08D80306860
:100C100040F480203060306840F4803030608DE0F7
:100C2000E068002852D00020C4F247200121016072
:100C3000FFF7EAFC054600BF306880073FF554AF78
:100C4000FFF7E2FC401B0228F6D984E0A0680128E7
:100C500005D005284ED1306F40F004003067306F6A
:100C600040F0010030674FE00021C0F8801EFFF720
:100C7000CBFC0546706F80077FF540AFFFF7C4FCE3
:100C8000401B0228F6D966E00027C4F2472700205F
:100C90003866FFF7B9FC022D05460BD1306880019C
:100CA0005ED5FFF7B1FC401B02284FF00300F5D9D9
:100CB00055E700BF306880017FF550AFFFF7A4FC17
:100CC000401B02284FF00300F4D948E70020C4F28B
:100CD000472000210160FFF797FC05463068800738
:100CE0007FF509AFFFF790FC401B02284FF003008F
:100CF000F4D934E7316F002821F001013167316FF9
:100D000021F0040131674DD0FFF77EFC054641F22A
:100D1000883700BF306F800756D4FFF775FC401B43
:100D2000B842F7D917E000BF3168002821F48031BC
:100D30003160316821F4802131604FD0FFF764FCCD
:100D4000054600BF306880033FF5B7AEFFF75CFC97
:100D5000401B6428F6D9032002B0BDE8F08100BF33
:100D600004F11C052FCD084340EA8210D9034FF649
:100D7000FF729143A1F5803140EA0560084370603D
:100D800001203866FFF740FC044600BF3068800150
:100D90003FF5E4AEFFF738FC001B02284FF00300DC
:100DA000F4D9DCE6FFF730FC054641F2883700BF96
:100DB000306F800708D5FFF727FC401BB8424FF083
:100DC0000300F5D9CBE600BFB8F1000F7FF499AE70
:100DD000306C20F08050306493E600BFFFF714FCC5
:100DE000054600BF306880037FF567AEFFF70CFC57
:100DF000401B64284FF00300F4D9B0E6411E0020E8
:100E0000B0EB116F1CBF012070474EF21002CEF202
:100E1000000251604EF62351CEF20001F0230B7018
:100E20000721906011607047704700007047000014
:100E3000B0B590F83C20012A04BF0220B0BD01F1FA
:100E400008053CCDD1E900CE23F47C5322F4705246
:100E50001A432EF4F0431A432CF4E0431A4324F4CB
:100E6000C0431A432A43C96922F4804203681143EC
:100E70005964002180F83C100846B0BD10B590F8C8
:100E80003C20012A4FF0020251D080F83D20026838
:100E9000D2F804E0D2F808C00C682EF070032343A7
:100EA00041F2FF74C4F20004A24253600EDC40F22F
:100EB000FF73C4F200039A4216DCB2F1804F2BD0CC
:100EC00040F20043C4F2000324E000BF40F2FF33CD
:100ED000C4F201039A4213DC41F60003C4F200039A
:100EE0009A4219D0002313E040F60003C4F2000335
:100EF0009A4211D040F60043C4F200030AE000BF5A
:100F000044F20003C4F201039A4205D040F20043C8
:100F1000C4F201039A4204D149682CF080031943BA
:100F200091600121002280F83D1080F83C2010469D
:100F300010BD0000002804BF0120704710B5044612
:100F400090F83D0028B9002084F83C00204600F0CD
:100F50001FF8022084F83D002068211D01F00AFAE4
:100F6000012084F8460084F83E0084F83F0084F8AD
:100F7000400084F8410084F8420084F8430084F87B
:100F8000440084F8450084F83D00002010BD0000B6
:100F900080B582B0006841F60001C4F200018842C9
:100FA0001ED00021C4F20101884228D10020019006
:100FB00043F64000C4F202004168002241F0010102
:100FC00041604068002100F0010001900198192063
:100FD000FFF7D2FB192002B0BDE88040FFF7B8BB95
:100FE0000020009043F64000C4F20200016841F086
:100FF00040010160006800F040000090009802B0DD
:1010000080BD000090F83D1001291CBF01207047F1
:10101000022180F83D10006841F2FF72C168C4F2FD
:101020000002904241F00101C1600DDC40F2FF710D
:10103000C4F20001884215DCB0F1804F2AD040F2A2
:101040000041C4F2000123E040F2FF31C4F201018B
:10105000884213DC41F60001C4F20001884219D035
:10106000002113E040F60001C4F20001884211D0D3
:1010700040F60041C4F200010AE000BF44F2000162
:10108000C4F20101884205D040F20041C4F20101DE
:10109000884206D1816801F00701062904BF0020BB
:1010A0007047016841F001010160002070470000B5
:1010B00080B590F83C20012A4FF0020200F0C28077
:1010C00080F83D20D0F800C04FF67772DCF8083089
:1010D00023EA0202CCF808200B684F2B28DC1F2BD8
:1010E00044DD202B45D0302B43D0402B40F0AC804A
:1010F000D1F804E0C968DCF82030DCF8202022F0C8
:101100000102CCF82020DCF8182022F0F00242EA9C
:10111000011123F00A0242EA0E02CCF81810CCF8B2
:101120002020DCF8081041F0470121F0300180E078
:101130006F2B27DDB3F5005F48D0B3F5805F7AD021
:10114000702B40F08180D1E901E3C968DCF8082008
:1011500043EA0E0322F47F4243EA01211143CCF813
:101160000810DCF8081041F0770162E00BB1102B99
:101170006AD1DCF8081021F07001194341F0070131
:1011800057E000BF502B35D0602B5DD1D1F804E083
:10119000C968DCF82030DCF8202022F01002CCF8FE
:1011A0002020DCF8182022F4704242EA013123F0BA
:1011B000A00242EA0E12CCF81810CCF82020DCF87D
:1011C000081041F0670121F0100132E0D1E901E39C
:1011D000C968DCF8082043EA0E0322F47F4243EAA0
:1011E00001211143CCF80810DCF8081041F48041CB
:1011F0001FE000BFD1F804E0C968DCF82030DCF85B
:10120000202022F00102CCF82020DCF8182022F067
:10121000F00242EA011123F00A0242EA0E02CCF87F
:101220001810CCF82020DCF8081041F0570121F00C
:101230002001CCF808100022012180F83D10002187
:1012400080F83C10104680BD0122F5E77047000091
:1012500070B504460068C5680669B10716D515F073
:10126000020113D06FF00201016101212177806931
:10127000800703D02046FFF7E9FF05E0204600F095
:101280008FF8204600F0D0F900202077700719D59C
:1012900015F0040016D020686FF0040101610221EE
:1012A0002177806910F4407F04D02046FFF7CEFFFD
:1012B00006E000BF204600F073F8204600F0B4F9C5
:1012C00000202077300717D515F0080014D02068CB
:1012D0006FF00801016104212177C069800703D004
:1012E0002046FFF7B3FF05E0204600F059F82046FE
:1012F00000F09AF900202077F00619D515F01000BB
:1013000016D020686FF01001016108212177C069B3
:1013100010F4407F04D02046FFF798FF06E000BF9E
:10132000204600F03DF8204600F07EF900202077AE
:10133000F00718BF15F0010002D1300609D412E001
:1013400020686FF001010161204600F0F9F93006D4
:1013500009D515F0800006D020686FF0800101618A
:101360002046FFF761FD700609D515F0400006D054
:1013700020686FF040010161204600F0F1F9B006ED
:1013800058BF70BD15F0200008D021686FF0200212
:1013900020460A61BDE87040FFF748BD70BD0000FF
:1013A000704700002DE9F04390F83C30012B04BF5A
:1013B0000220BDE8F0834FEAB202032A00F2FC806B
:1013C000DFE802F0023E7EBE036840F200471C6A7E
:1013D0001A6A24F0020422F001021A621A46D3F8B3
:1013E00004E052F818CF8E6843F48065C4F2010718
:1013F000BD4244EA060405D1CE6824F00C0426F070
:10140000040634430E68BD4207D1D1E905572EF4D6
:10141000407E45EA0E0545EA070E2CF07307374378
:10142000C3F804E09F614F6809695F631C629F69AC
:1014300047F008079F619F6927F004079F61B1E0AB
:10144000036840F200481C6A1A6A24F0200422F063
:1014500010021A621A46D3F804C052F818EF8F68C7
:1014600043F48065C4F20108454544EA071407D1F6
:10147000CF686FF0400624F0C00406EA0716344334
:10148000D1F80090454506D1D1E905562CF44067C6
:101490002E4347EA860C2EF4E64747EA0927C3F8AD
:1014A00004C09F614F6809699F631C629F6947F48C
:1014B00000679F619F6927F480679F6171E000BFAB
:1014C000036840F200481C6A1A6A24F4007422F48B
:1014D00080721A621A46D3F804C052F81CEF8F6863
:1014E00043F48065C4F20108454544EA072408D165
:1014F000CF6840F2FF463F0224F4406427EA060624
:101500003443D1F80090454506D1D1E905562CF475
:1015100040572E4347EA061C2EF0730747EA090797
:10152000C3F804C0DF614F680969DF631C62DF69CB
:1015300047F00807DF61DF6927F00407DF6131E06A
:10154000036840F20045D3F820C01A6A43F480676C
:1015500022F480521A621A465C6852F81CEFD1F8E5
:1015600000808E68C4F20105AF4204D14D6924F4B5
:10157000804444EA85142CF4005747EA06372EF4D9
:10158000E64646EA08265C60DE614E6809691E642C
:101590001F62DF6947F40067DF61DF6927F4806756
:1015A000DF6109021368194311600021002280F8ED
:1015B0003C200846BDE8F0830121002280F83C2051
:1015C0000846BDE8F0830000002804BF01207047F2
:1015D00010B5044690F83D0028B9002084F83C007E
:1015E000204600F01FF8022084F83D002068211DED
:1015F00000F0C0FE012084F8460084F83E0084F824
:101600003F0084F8400084F8410084F8420084F8E8
:10161000430084F8440084F8450084F83D0000202D
:1016200010BD0000704700007047000041B108295C
:1016300010D0042914BF00F1410200F13F020BE079
:1016400090F83E20012A1CBF01207047022280F83A
:101650003E2013E000F140021278012A1CBF012055
:1016600070470222082907D0042914BF80F84120BE
:1016700080F83F2002E000BF80F84020006801F0C1
:101680001F010122036A02FA01F123EA0102026248
:10169000026A114341F2FF72C4F2000290420162F9
:1016A0000CDC40F2FF71C4F20001884214DCB0F19E
:1016B000804F37D040F2004116E000BF40F2FF31CA
:1016C000C4F20101884215DC41F60001C4F20001B8
:1016D000884227D0002115E040F60001C4F2000145
:1016E00088421FD040F60041C4F20001884219D060
:1016F0001FE000BF44F20001C4F20101884211D092
:1017000040F20041C4F20101884212D1416C40F222
:10171000004340F48062C4F2010341F400419A4264
:10172000416406D1816801F00701062904BF002049
:101730007047016841F0010101600020704700001E
:1017400040F24401C2F20001884218BF704740F2E3
:101750003400C2F2000001680131016070470000EE
:10176000704700007047000070470000B0B582B0BD
:10177000044600680168C368426901F02F05202D06
:1017800003F0200506D12DB1204602B0BDE8B040DF
:1017900000F09EBE5FEA017C1EBF02F0010E03F462
:1017A000907212EB0E0253D1226B012A05D111F077
:1017B000100218BF13F0100236D10A0622D513F01A
:1017C00080021FD094F8411021293FD1A168B1F5C2
:1017D000805F03D12169002900F08282216A4A1CBE
:1017E000226209784160E18C01390A04E1842DD13B
:1017F000C16821F08001C160C16841F04001C16051
:1018000002B0B0BD490621D513F040011ED0C16819
:1018100021F04001C1602021204684F8411002B02F
:10182000BDE8B04000F040BB00210191016801918A
:101830004168019101994069400613D4A08DE18D62
:10184000E28D002A18BF884240F0CC8102B0B0BDC2
:10185000CA0718BF13F4807240F0BE804A0700F137
:10186000C180C6E0E06B01684A68A38D91B200298F
:1018700000F0A881994280F0A581E285C069B0F5A9
:10188000807F00F09D80206850E8030F216820F4DD
:10189000807041E80302DAB1206850E8030F216844
:1018A00020F4807041E8030292B1206850E8030FF1
:1018B000216820F4807041E803024AB1206850E8B2
:1018C000030F216820F4807041E80302002ADAD176
:1018D000206850E8050F216820F0010041E805026A
:1018E000BAB3206850E8050F216820F0010041E8F4
:1018F000050272B3206850E8050F216820F001004E
:1019000041E805022AB3206850E8050F216820F05D
:10191000010041E80502002ADAD11AE0206850E807
:10192000050F216820F0400041E80502DAB1206887
:1019300050E8050F216820F0400041E8050292B10F
:10194000206850E8050F216820F0400041E80502BA
:101950004AB1206850E8050F216820F0400041E8B6
:101960000502002ADAD1202084F8420000202063FA
:10197000206850E8030F216820F0100041E80302BE
:10198000DAB1206850E8030F216820F0100041E828
:10199000030292B1206850E8030F216820F0100084
:1019A00041E803024AB1206850E8030F216820F0A3
:1019B000100041E80302002ADAD1E06BFEF7A6FC32
:1019C00002206063A08DE18D401A81B2204602B0F2
:1019D000BDE8B040FFF7C6BE626C42F0010262642F
:1019E0004A0706D5BEF1000F03D0626C42F0020236
:1019F00062648A0706D5BEF1000F03D0626C42F024
:101A000004026264BCF1000F09D545EA0E02B2FA85
:101A100082F2520903D1626C42F008026264626C85
:101A2000002A3FF413AF11F0200118BF002D03D09E
:101A3000204600F04DFD20684069616C00F04000D8
:101A400001F00801401800F0B58000BF206850E8A0
:101A5000030F216820F4907041E80302BAB32068B4
:101A600050E8030F216820F4907041E8030272B33C
:101A7000206850E8030F216820F4907041E80302C9
:101A80002AB3206850E8030F216820F4907041E8E1
:101A90000302002ADAD11AE0206850E8050F216815
:101AA00020F0010041E80502DAB1206850E8050F96
:101AB000216820F0010041E8050292B1206850E859
:101AC000050F216820F0010041E805024AB12068B5
:101AD00050E8050F216820F0010041E80502002AC6
:101AE000DAD1206B012824D1206850E8030F216847
:101AF00020F0100041E80302DAB1206850E8030F3B
:101B0000216820F0100041E8030292B1206850E8FB
:101B1000030F216820F0100041E803024AB1206859
:101B200050E8030F216820F0100041E80302002A6A
:101B3000DAD1202084F84200002020632068406928
:101B4000400649D5206850E8050F216820F0400084
:101B500041E80502DAB1206850E8050F216820F05D
:101B6000400041E8050292B1206850E8050F216865
:101B700020F0400041E805024AB1206850E8050F16
:101B8000216820F0400041E80502002ADAD1E06B2C
:101B900010B342F2C541C0F600010165FEF7FEFB3D
:101BA00000283FF453AEE06B016D02B0BDE8B040D9
:101BB000084700BF2046FFF7D7FD0020606402B051
:101BC000B0BD00BF8B427FF441AEC069B0F5807FED
:101BD0007FF43CAE02227CE0204602B0BDE8B0407B
:101BE000FFF7C2BD401A216851E8031F226821F4A3
:101BF000907142E80313DBB1216851E8031F2268AA
:101C000021F4907142E8031393B1216851E8031F56
:101C1000226821F4907142E803134BB1216851E826
:101C2000031F226821F4907142E80313002BDAD1DC
:101C3000216851E8051F226821F0010142E80513DF
:101C4000DBB1216851E8051F226821F0010142E85B
:101C5000051393B1216851E8051F226821F00101A5
:101C600042E805134BB1216851E8051F226821F0B5
:101C7000010142E80513002BDAD1202184F842103B
:101C800000212163216851E8031F226821F010011F
:101C900042E80313DBB1216851E8031F226821F0F9
:101CA000100142E8031393B1216851E8031F226831
:101CB00021F0100142E803134BB1216851E8031FE2
:101CC000226821F0100142E80313002BDAD102222E
:101CD00081B22046626302B0BDE8B040FFF742BD6A
:101CE000216A31F8022B6FF35F22426021627AE5AC
:101CF000002804BF0120704710B5044690F8410049
:101D000028B9002084F84000204600F021F8242063
:101D100084F841002068C16821F40051C160204668
:101D200000F056FC2068016921F49041016141698D
:101D300021F02A014161C16841F40051C1600020D5
:101D40002021606484F8411084F84210606310BD63
:101D500080B586B0016847F60000C4F200008142F9
:101D600002D006B080BD00BF002143F630020191D1
:101D7000C4F20202136900F5CC3043F080431361D2
:101D8000136903F080430193019B0191136843F0B1
:101D900010031360126802F010020192019A4FF4CE
:101DA000C07201920222CDE902210321049108218F
:101DB000059101A9FEF748FB522000210022FEF701
:101DC000DBFC5220FEF7C4FC06B080BD90F8423028
:101DD000202B1CBF0220704700294FF0010318BFC1
:101DE000002A01D118467047002303638162222133
:101DF0008285C285436480F842100169006819B188
:101E0000C16841F48071C1604169002341F0010162
:101E10004161C16841F02001C1601846704700006F
:101E200040F2D401C2F20001884216D110B540F24E
:101E30001004C2F2000440F21C11C2F2000120465C
:101E40001422FEF702FA40F2D400C2F2000021464A
:101E5000142200F00DF8BDE8104040F2D40040F22A
:101E60001C11C2F20000C2F200011422FFF7AEBF43
:101E7000034690F8410020281CBF0220704700292B
:101E80004FF0010018BF002A00D1704719620020EE
:101E900021219A84DA84586483F841101968CA6849
:101EA00042F08002CA60704770470000FEE7000001
:101EB000F0B587B0002643F63000CDE905660196FF
:101EC000C4F20200016841F2004441F001010160E6
:101ED0000168C4F2020401F0010101910199019627
:101EE0000168002241F08001016001684FF48047E1
:101EF00001F08001019101990196016841F0020110
:101F00000160016801F002010191019901960168E7
:101F100041F010010160016801F010010191019987
:101F20000196016841F02001016000684FF4804192
:101F300000F02000019001982046FEF75FFB04208E
:101F400002904FF4881002ADCDE90306A4F580504D
:101F50002946FEF779FA0120CDE9030620462946F5
:101F600002970596FEF770FA082002210022FEF77C
:101F700003FC0820FEF7ECFB07B0F0BD80B540F293
:101F8000380043F20001C2F20000C4F20001022254
:101F900040F69F7380E80E00FEF73CFB002808BF68
:101FA00080BDBDE88040FEF7ADB90000B0B590B08F
:101FB00041F6000540F28C00C4F200050021C2F297
:101FC00000004FF6FF720A91CDE908110691CDE9A4
:101FD0000411CDE90211CDE90011C0E90051C0E9B9
:101FE000021201618161FEF7A5FF002818BFFEF70C
:101FF00089F94FF48050079040F28C00C2F2000043
:1020000007A9FFF755F8002818BFFEF77BF940F243
:102010008C00C2F20000FFF7D7FA002818BFFEF7C5
:1020200071F9602040F28C0400900020C2F200049C
:10203000CDE901000490694620460022FFF7B2F97D
:10204000002818BFFEF75EF92068A8421AD00021C8
:10205000C4F20101884232D100200B9043F63000D7
:10206000C4F2020001684FF4006241F01001016007
:102070000068012100F010000B900B9805F5FC3072
:1020800013E000BF00200B9043F63000C4F20200C2
:102090000168402241F0800101600068092100F0E0
:1020A00080000B900B9805F501300B9202220C92E8
:1020B00000220F910BA9CDE90D22FEF7C5F910B052
:1020C000B0BD0000B0B59CB0002540F24400C4F2A1
:1020D00001050021C2F20000B32240F2E73316915D
:1020E000CDE914111191CDE90F11CDE90D11CDE913
:1020F0000B11CDE90911CDE90711CDE90511CDE9A4
:102100000311CDE90111C0E90052C0E90213C0E991
:1021100004118161FEF70EFF002818BFFEF7F2F8E8
:102120004FF48050139040F24400C2F2000013A913
:10213000FEF7BEFF002818BFFEF7E4F840F24400A7
:10214000C2F20000FFF740FA002818BFFEF7DAF8E5
:1021500040F244000024C2F2000010A9CDE910446E
:10216000FEF78CFE002818BFFEF7CCF8702009900F
:1021700040F2F310CDE90A0440F24400C2F200003C
:1021800009A90422CDE90C44CDE90E44FFF70AF970
:10219000002818BFFEF7B6F840F2440400204FF4C0
:1021A0000051C2F200040590CDE90300CDE9010021
:1021B0000691089001A92046FEF73AFE002818BFB4
:1021C000FEF7A0F8206841F60001C4F20001884241
:1021D00016D0A84231D10020179043F63000C4F247
:1021E000020001684FF4006241F0100101600068D4
:1021F000012100F010001790179805F5883012E0C3
:102200000020179043F63000C4F20200016840221B
:1022100041F0800101600068092100F08000179002
:10222000179805F58E3017920222189200221B9102
:1022300017A9CDE91922FEF707F91CB0B0BD0000BF
:1022400010B540F2D40047F6000CC2F20000C4F210
:10225000000C4FF4E1324FF4805300214FF4806EB4
:102260000C24C0E900C2C0E90231C0E904E4C0E9BD
:102270000611FFF73DFD002808BF10BDBDE8104066
:10228000FEF740B8FEE70000FEE7000070470000E0
:1022900070470000FEF7F2B980B592B0002043F617
:1022A00040010A90CDE908000590CDE90300CDE991
:1022B00001000090C4F202010A6842F080520A60F4
:1022C000096801F0805100910099009047F20000E8
:1022D000C4F20000016841F44041016000684FF41D
:1022E000800100F4404000900098092006904FF4CF
:1022F0008030079001200D9106210B9002200E9155
:10230000B4210C90CDE90F100420119006A8FEF71F
:10231000BBFB18B172B600BFFEE700BFFEF768FA5C
:1023200010B172B6FEE700BF0F20019002200290AC
:10233000002003904FF4A05004904FF4805005907B
:1023400001A80521FEF792FA10B172B6FEE700BFB0
:1023500012B080BD4EF68850CEF20000016841F404
:10236000700101607047000040F24400C2F20000BA
:10237000FEF76EBFB0B540F6FF3E0568C4F2000E32
:1023800040F2004C7045C4F2010C27DCB0F1804FE4
:1023900031D040F20043C4F2000398422BD040F603
:1023A0000003C4F20003984225D041F6FF73C4F243
:1023B000000398422ADC70453CDCB0F1804F5FD0CE
:1023C00040F20043C4F20003984259D040F60003A3
:1023D000C4F20003984253D057E000BF40F60043D8
:1023E000C4F20003984206D0604504D00023C4F232
:1023F00001039842D9D14B6825F0700243EA0205E7
:1024000041F6FF73C4F200039842D4DD43F6FF7334
:10241000C4F20103984221DC42F20003C4F200033B
:1024200098422DD00023C4F20103984228D0604581
:1024300026D02AE040F60043C4F2000398421FD0A1
:1024400041F60003C4F20003984219D041F600435C
:10245000C4F20003984213D017E000BF44F2000317
:10246000C4F2010398420BD044F60003C4F2010306
:10247000984205D044F20043C4F20103984204D1CB
:10248000CB6825F4407243EA02050A688C684B6900
:10249000C46240F480648262644504BF09690163D8
:1024A000026825F0800142F0040219430260012213
:1024B00042610160B0BD000040F2D400C2F20000F1
:1024C000FFF754B9806B0021C185FFF74DB90000BB
:1024D00081B090F84210222921D183680246B3F5D9
:1024E000805F09D152F8281F52F8183C002B63D0A6
:1024F00003685B680AE000BF52F8281F13B903693C
:10250000002BF5D003685B6803F07F030B70116844
:1025100001311160C18D01390A04C18502D001B0B9
:10252000704700BF0168CA6822F02002CA60CA680A
:1025300022F48072CA604A6922F001024A612021B5
:1025400080F8421000214163026B012A3CD10163F3
:10255000016851E8031F026821F0100142E80313EB
:10256000DBB1016851E8031F026821F0100142E865
:10257000031393B1016851E8031F026821F01001B1
:1025800042E803134BB1016851E8031F026821F0D0
:10259000100142E80313002BDAD101680A68D20661
:1025A00006D5002200920A680092496800910099BD
:1025B000818D01B0FFF7D6B8026852686FF35F22D1
:1025C00021F8022B8162A5E701B0FFF729BC0000CA
:1025D00010B504460068D4E902C22369016921F4F8
:1025E000405111430161626943EA0C01E3691143FF
:1025F000C268194349F20C639A431143C1604169AF
:10260000A26921F4407141F20043114340F4806219
:10261000C4F201039A42416102D1FEF7EBF901E0F5
:10262000FEF7D4F9E16963681922B1F5004FA0FB08
:10263000020123D15A00DB0FFDF7D6FD48F21F51EE
:10264000C5F2EB11A0FB01235A094FF69C73C0F6AB
:10265000FF7303F1805302FB0300322303EBC0003E
:10266000A0FB01014FF4F87000EA111000EB02101A
:10267000C1F3421108442168886010BD9A009B0F85
:10268000FDF7B2FD48F21F51C5F2EB11A0FB01238B
:102690005A094FF69C73C0F6FF7302FB0300322306
:1026A00003EB0010A0FB0101F02000EA511000EB49
:1026B0000210C1F3431108442168886010BD000076
:1026C000FEE7000080B5FDF79FFF40F22801C2F24F
:1026D0000001086080BD0000FDF7DEFFFFF7DCFDB4
:1026E000FFF7E6FBFFF7EEFCFFF748FCFFF7A8FD5E
:1026F000FFF75CFC40F24404C2F2000420460421CF
:10270000FEF794FF40F28C00C2F200000021FEF7B9
:102710008DFF2046FEF776FC42F20800CEF2040060
:102720000168142241F48051016040F2D40040F26B
:102730001C11C2F20000C2F20001FFF747FB40F299
:10274000300740F2004540F23806C2F20007C4F2FA
:102750000205C2F2000600BF386821688863284677
:102760000421FDF745FF0128F6D13046FDF780FF33
:10277000F2E74100080218BF04200A0E18BF40F01B
:1027800001004FF07F4232EA010108BF40F0020031
:10279000012808BF0520704700B510EE101A2DED76
:1027A000028B81B0524A6846B2EB410F2ED94FF0EE
:1027B000E640B0EB410F94BF00204FF0FF30009097
:1027C0000098B0EE408A00286ADB10F0010F4BD071
:1027D00068EE080A9FED471A9FED470A00EE810A4E
:1027E0009FED461A10F0020F00EE801AB7EE000AB5
:1027F00000EE810A02BF01B0BDEC028B00BD00BF3C
:1028000001B0B1EE400ABDEC028B00BD3C4B21F0A3
:102810000042934241D911F0004FDFED3A0A20EE19
:10282000201ADFED390A19BF31EE601A71EE200A65
:1028300031EE201A71EE600ABDEEE01A11EE100AB8
:102840009FED321A00F0030000EEC10A9FED301A2E
:10285000009000EEC10A9FED2F1A00EEC10A9FED15
:102860002E1A00EEC10AABE728EE080A9FED2B1ADC
:10287000DFED2B0A10F0020F40EE010A9FED291A3E
:1028800000EE201A61EE000AB0EE480A08EE200AB7
:10289000B6D101B0BDEC028B00BD00F059F88FE756
:1028A00018EE100A4000B0F17F4F0DD218EE100A5A
:1028B000FFF75FFF042808BF00F042F8B0EE480AB7
:1028C00001B0BDEC028B00BD09D1012000F0FAF887
:1028D00001B0BDEC028B5DF804EB00F029B801B04B
:1028E000B0EE480ABDEC028B5DF804EB00F01CB8BA
:1028F000B61F927EB93AB2BACA9F2A3DDDFFFFBE2B
:10290000490E494683F9223F0000004B0000C93FB1
:1029100000A0FD390020A2331A61342C336D4CB96C
:10292000DA82083CA0AA2ABE30EE000A70470000F6
:10293000DFED020A80EEA00A7047000000000000F0
:102940009FED020A20EE000A704700000000001010
:102950002DE9F0014FF07F42B2EB410F9FBF4FF0E6
:10296000FF310160BDE8F00170474FF0004242EADC
:102970000123C1F3C752783A551112F01F0C434C92
:10298000CCF120067C44C1F3C752A2F178024FEA91
:10299000621204EB820254F8254008BFD2E90156C6
:1029A00012D0556804FA0CF425FA06F73C439768F0
:1029B00005FA0CF527FA06F8D26807FA0CFCF24083
:1029C00045EA08054CEA0206A4FB034CA5FB0352AA
:1029D000A6FB03631D449D4234BF01260026131944
:1029E000334416B1934202D903E0934201D201224B
:1029F00000E00022624402F1200C9206DC0C42EA64
:102A0000443200EE102A5B03DFED210AF8EEC01A13
:102A100000EE103A4FEA9C1C11F0004FB8EE400A4D
:102A2000C0F800C020EE201A00EE105ADFED190A9F
:102A3000B8EE400A20EE200A71EE810A70EE800A9C
:102A400010EE902A02F500626FF30B0200EE902A5E
:102A500070EEE11A31EEC11ADFED101A30EE411AB4
:102A60009FED0D0A20EE800A01EE210A9FED0C1A5F
:102A700000EE810A04BFBDE8F0017047CCF180513F
:102A80000160BDE8F001B1EE400A70474801000066
:102A9000000000360000802C22AAFD29DB0FC92F80
:102AA0000000C92F02E008C8121F08C1002AFAD18D
:102AB00070477047002001E001C1121F002AFBD1BE
:102AC00070470000014908607047000000000020C6
:102AD000000000006E83F9A22915444ED15727FC4F
:102AE000C0DD34F5999562DB4190433CAB6351FE08
:102AF00000000000000000000102030406070809AE
:102B00000000000001020304302B00080000002038
:102B100028000000A42A0008582B000828000020E4
:102B200010050000B42A00089DFBFFFF0000000014
:102B30000000000001000000100000000024F4006C
:102B400048656C6C6F2C20526F626F4D61737465B9
:082B500072210A0000000000E0
:04000005080001AD41
:00000001FF
